:020000040000FA
:08000000803102288731FD2F39
:100F4600623051018D008F019101930192010800D9
:100F56004F0196019701980199019A019B019C0105
:100F66009D0108008731AB2787318731D927873123
:100F76008731A327873108008731B527873140019C
:100F86000C140530F0000D30890BC72FF00BC72F5E
:100F9600003240010C100530F0000D30890BD12FC6
:100FA600F00BD12F0032C22F803102284001980168
:100FB60099019A0138309200F0309300FF30940086
:100FC600FF307E01CE00F030C3003730B800C401D8
:100FD600B901CF01BA01C501D0013730BB00F030ED
:100FE600C600FF30D1003F30BC00F030C700FF30F4
:0A0FF600D200080040018731BF2F30
:020000040001F9
:0A000E00EC3FFF3F9F3FFF3FFF3F25
:00000001FF
